:020000040800F2
:10000000901B002049010008610400085904000801
:100010005D0400083D0300084116000800000000D0
:100020000000000000000000000000007113000844
:100030004103000800000000B70100085D1400083B
:100040006301000863010008630100086301000800
:1000500063010008630100086301000863010008F0
:1000600063010008630100086301000863010008E0
:1000700063010008630100086301000863010008D0
:1000800063010008630100086301000863010008C0
:1000900063010008630100086301000863010008B0
:1000A00063010008630100086301000863010008A0
:1000B0006301000863010008630100086301000890
:1000C0006301000863010008630100086301000880
:1000D0006301000863010008630100086301000870
:1000E0006301000863010008630100086301000860
:1000F0006301000863010008630100086301000850
:10010000630100086301000863010008630100083F
:10011000630100086301000863010008630100082F
:10012000630100086301000863010008630100081F
:10013000DFF810D000F070F8004800475D170008A5
:10014000AFF30080901B0020064880470648004718
:10015000FEE7FEE7FEE7FEE7FEE7FEE7FEE7FEE777
:10016000FEE7FEE7851400083101000872B670470B
:1001700062B67047EFF3108072B6704780F3108854
:1001800070471D484FF0FF010170002080F309887F
:100190001A48012101701A484FF08051016062B67F
:1001A000FEE717484FF080510160704714484FF048
:1001B00080510160704772B6EFF3098028B1203892
:1001C00080E8F00F0F490968086000B50E488047C5
:1001D0005DF804EB0D480E490A78027009480D4994
:1001E0000A680260106890E8F00F203080F30988F8
:1001F0004EF0040E62B6704722ED00E0360000209B
:1002000004ED00E03C000020D90A00082F00002087
:100210003000002044000020064C074D06E0E06856
:1002200040F0010394E8070098471034AC42F6D33D
:10023000FFF782FFE41800080419000808E005A091
:1002400001F052FA142300221146104600F07EFC01
:10025000F5E700007461736B312D2D2D2D2D2D725E
:100260000A00000008E005A001F03EFA1423002275
:100270001146104600F06AFCF5E700007461736BEC
:10028000322A2A2A2A2A2A720A00000008E005A037
:1002900001F02AFA142300221146104600F056FC01
:1002A000F5E700007461736B332E2E2E2E2E2E7206
:1002B0000A00000008230E4A00210E4800F02AFA26
:1002C00009230D4A00210D4800F024FA0A230C4AA4
:1002D00000210C4800F01EFA08E00BA001F004FA1F
:1002E000142300221146104600F030FCF5E7000010
:1002F000540300203D020008540400206502000859
:10030000540500208D02000873746172742B2B2B2E
:100310002B2B2B720A00000000F004F800F0C8FC40
:10032000FFF7C8FF10B500F0B5FF00F09AF801F034
:1003300089F910BD10B5FFF719FF10BD00BFFEE72A
:1003400070472DE9F04102460025002600200023D9
:100350000024002791F803C00CF00F0591F803C0AA
:100360000CF0100CBCF1000F03D091F802C04CEA65
:10037000050591F800C0BCF1000F31D014680020D1
:100380002BE04FF0010C0CFA00F3B1F800C00CEABE
:1003900003069E4220D183004FF00F0C0CFA03F7A6
:1003A000BC4305FA03FC4CEA040491F803C0BCF119
:1003B000280F06D14FF0010C0CFA00FCC2F814C053
:1003C0000AE091F803C0BCF1480F05D14FF0010CD1
:1003D0000CFA00FCC2F810C0401C0828D1D31460ED
:1003E000B1F800C0BCF1FF0F34DD546800202EE0EE
:1003F00000F1080C4FF0010808FA0CF3B1F800C046
:100400000CEA03069E4221D183004FF00F0C0CFA38
:1004100003F7BC4305FA03FC4CEA040491F803C05B
:10042000BCF1280F05D100F1080C08FA0CF8C2F84D
:10043000148091F803C0BCF1480F07D100F1080CFB
:100440004FF0010808FA0CF8C2F81080401C082888
:10045000CED35460BDE8F08100BFFEE700BFFEE7E9
:10046000704710B54FF4A06000F03AF810BD0000DE
:1004700070B5002100230F22C47804B3154C246802
:1004800004F4E064C4F5E064210AC1F10403CA4045
:10049000447804FA03F184781440214309010E4C96
:1004A0000678A155047804F01F050124AC400578B6
:1004B0006D11AD0005F1E025C5F8004109E00478B3
:1004C00004F01F050124AC40044D0678761145F870
:1004D000264070BD0CED00E000E400E080E100E0AB
:1004E00002490143024A1160704700000000FA050A
:1004F0000CED00E0174818481848194819481A48E0
:100500001A481B481B481C481C481D481D481E48CB
:100510001E481F481F48204820482148214822489B
:10052000224823482348244824482548254826486B
:1005300026482748274828482848294829482A483B
:100540002A482B482B482C482C482D482D4800BFC2
:100550007047000084180008881800088C180008EC
:100560008E180008901800089218000894180008C7
:1005700096180008981800089A1800089C18000897
:100580009E180008A0180008A2180008A418000867
:10059000A6180008A8180008AA180008AC18000837
:1005A000AE180008B0180008B2180008B418000807
:1005B000B6180008B8180008BA180008BC180008D7
:1005C000BE180008C0180008C2180008C4180008A7
:1005D000C6180008C8180008CA180008CC18000877
:1005E000CE180008D0180008D2180008D418000847
:1005F000D6180008D8180008DA180008DC18000817
:10060000DE180008E018000810B500F013F800F03C
:10061000DBFB00F003FC00F025FC00F0ADFB00F07C
:1006200085FB00F053FC00F079FC00F004F8FFF7C4
:1006300061FF10BD7047704710B500241A4800785C
:10064000012830D1FFF796FD0446184800780028AD
:1006500004DD16480078401E1449087013480078DD
:10066000F0B913480078D8B900F0C4FC11480078FC
:1006700011490978884213D010480E49097850F87A
:1006800021000F49086008460068806B401C09681B
:1006900088630C480068401C0A490860FFF786FD23
:1006A0002046FFF76BFD10BD360000202D00002016
:1006B0002E000020300000202F000020240B0020FE
:1006C000440000201400002010B50B48007890B9B9
:1006D00000F090FC0948007809490870094807496A
:1006E000097850F821000849086008460068074961
:1006F0000860FFF746FD10BD3600002030000020E6
:100700002F000020240B0020440000203C0000208B
:10071000704700002DE9FE4F06460F4690461C46E6
:100720004FF00009FFF726FD814620480078002899
:1007300005DD4846FFF722FD3C20BDE8FE8F1C4842
:1007400050F8240060BB0120194941F824004846B4
:10075000FFF714FD002342463946304600F01AF9EF
:1007600082460020009001900346024651460290C6
:10077000204600F06DFC054635B90E48007801288A
:100780000CD100F0FDFB09E0FFF7F4FC81460020EE
:10079000074941F824004846FFF7F0FC2846CCE71B
:1007A0004846FFF7EBFC2820C7E700002D0000209B
:1007B000240B0020360000202DE9F04F85B0814643
:1007C0008A4693461C46DDE90F78129D002003906F
:1007D000FFF7D0FC039023480078002806DD03983B
:1007E000FFF7CCFC3C2005B0BDE8F08F1E4850F868
:1007F000240088BB01201C4941F824000398FFF71E
:10080000BDFC2A464146384600F026FD2B465A4696
:100810005146484600F0BEF804901198CDE900809A
:1008200002953A4620460E9B049900F011FC0646BC
:1008300036B90E48007801280CD100F0A1FB09E080
:10084000FFF798FC03900020074941F82400039823
:10085000FFF794FC3046C6E7FFE70398FFF78EFCEE
:100860002820C0E72D000020240B002036000020A7
:10087000704770472DE9F0470646884614464FF00A
:1008800000091D480078002803DD12202070BDE813
:10089000F087FFF76FFC8146FF2E03D117480068F1
:1008A00090F83260164850F826502DB94846FFF7A8
:1008B00065FC43202070EAE7012D05D14846FFF78B
:1008C0005DFC43202070E2E7404600F0B7FB07469E
:1008D0000F2F05DD4846FFF751FC41202070D6E779
:1008E000414605F14C0000F09BFB4846FFF746FCF3
:1008F0000020207000BFCAE72D0000203C0000202F
:10090000240B0020704700002DE9F04707460D46F4
:100910004FF0000A002028606860FFF72BFC824639
:10092000FF2F03D11948006890F83270184850F82A
:1009300027402CB95046FFF721FC4320BDE8F08743
:10094000012C04D15046FFF719FC4320F6E7207C28
:1009500000F0010020B95046FFF710FC4520EDE7FC
:100960000026D4F80C90D4F808805046FFF706FC17
:1009700000E0761C58F8041B0029FAD0B00028606B
:10098000A9EB0600800068600020D7E73C0000204B
:10099000240B002070B5044610464FF080750560AA
:1009A000051F28462C606FF00106051F28462E60A3
:1009B0004FF01236051F28462E604FF00336051FF4
:1009C00028462E604FF00236051F28462E6076100E
:1009D000051F28462E60051F284629604FF0113656
:1009E000051F28462E604FF01036051F28462E6042
:1009F0004FF00936051F28462E604FF00836051FB8
:100A000028462E604FF00736051F28462E604FF00F
:100A10000636051F28462E604FF00536051F28466E
:100A20002E604FF00436051F28462E6070BD000072
:100A30002DE9F04105464FF00008FFF79BFB80468B
:100A4000FF2D05D12048006890F83250012608E0BB
:100A50001D48006890F83200A84201D1012600E04C
:100A600000261A4850F825402CB94046FFF786FB6F
:100A70004820BDE8F081012C04D14046FFF77EFB01
:100A80004320F6E794F834701148C05D94F83510AF
:100A900088430F49C8550846C05D30B994F83610F0
:100AA0000C48007888430B49087094F8300040F0F7
:100AB000080084F830004046FFF760FB012E01D1AA
:100AC00000F05EFA0020D4E73C000020240B002058
:100AD00032000020310000207047000070B505464C
:100AE000002616480078002800DD70BD002D23DDAB
:100AF000FFF740FB06461248006890F83440114862
:100B0000005D0F49096891F8351088430D49085573
:100B10000846005D40B90A48006890F836100A4857
:100B2000007888430849087005480068C585304644
:100B3000FFF724FB00F024FA00BFD6E72D000020C9
:100B40003C00002032000020310000202DE9F04759
:100B500006460F469046994618480078002802DD60
:100B60005520BDE8F08709F10500642148434FF4A2
:100B70007A71B0FBF1F14FF461607043C7EB07127B
:100B800000EB8200404400EBC00202EB001001EBDE
:100B90008004250CA4B22046FFF7A0FF09E04FF423
:100BA0000040FFF79BFF4FF40040FFF797FF681EE0
:100BB00085B2002DF3DC0020D3E700002D000020DB
:100BC00070B5002600F072F8FFF7D4FA06463148F7
:100BD0000068401C2F4908603046FFF7CFFA2E48C6
:100BE0000078012853D12D48007820B1012804D085
:100BF000022809D103E001250BE0002509E00125C9
:100C000001202649087004E00125002023490870CE
:100C100000BF00BF05B970BD2148046833E0FFF78D
:100C2000A9FA0646E08D50B3E08D401E80B2E08503
:100C300028BB94F8300000F0370040B114F8300FB2
:100C400020F03700207001206070303C02E000206E
:100C500084F8310094F8300000F0080078B934349A
:100C6000A0781049097808430E49087020780E4989
:100C7000085C6178084314F834190B4A50546469CD
:100C80003046FFF77BFA94F832001F28C7D100BF27
:100C9000C1E7000050000020360000204C0000207A
:100CA0004800002031000020320000207047000082
:100CB00030B585B0684600F0F1FA64220198B0FBC7
:100CC000F2F1B1F1807F00D31DE021F07F40401EA2
:100CD0004FF0E022506150170F22002807DA130767
:100CE0001D0E104B00F00F04241F1D5503E01307C9
:100CF0001C0E0D4B1C5400BF00204FF0E0229061F1
:100D00000720106100BF4FF0E020006940F00500AF
:100D10004FF0E02108610846006940F002000861D8
:100D200005B030BD18ED00E000E400E070B58C21A6
:100D30000F4800F01BF90E4C04F11C0600250AE0D8
:100D40000020207066603F20A0720021E1721C34F8
:100D50001C36681C85B2042DF2DB00202070606018
:100D60003F20A0720021E17201480249086070BD75
:100D7000980600201C00002030B54FF4A0711048E8
:100D800000F0F4F80E4B03F1200500240AE00020E7
:100D900018705D603F20D87300211974203320350E
:100DA000601C84B2092CF2DB0020187058603F20D0
:100DB000D8730021197402480249086030BD000050
:100DC000580500201800002000200A4908600A4940
:100DD00008700A4908700A4908700A4908700A49E7
:100DE00008600A4908600A4908600A4908600A4917
:100DF00008707047500000202D0000202E000020B9
:100E000037000020360000201400002038000020A9
:100E100028000020240000202C00002000220B4B82
:100E20001A700B49002004E0002201F8012B421C3B
:100E3000D0B20428F8DB0022064B1A70064B1A7059
:100E4000064B1A60064B1A60704700003100002004
:100E5000320000202F00002030000020440000203D
:100E60003C00002030B54FF4FD61144800F07EF8DE
:100E70008021134800F07AF8104B03F15C05002440
:100E80000AE05D613F2083F84C0000214D20C154F1
:100E90005C335C35601CC4B2152CF2D30020586161
:100EA0003F2083F84C0000214D20C154002005490B
:100EB000086002480449086030BD0000A40B00200F
:100EC000240B0020480000204000002000B587B01F
:100ED0000320002180220A4BCDE90132CDE9031025
:100EE0004FF6FF701F23074A00900748FFF764FC86
:100EF00006AA06A11F20FFF7BDFC07B000BD000039
:100F000024090020200B00207111000875432F4F89
:100F1000532D49492049646C6500000000B587B035
:100F20000320002180220A4BCDE90132CDE90310D4
:100F30004FF6FE701E23074A00900748FFF73CFC5F
:100F400006AA06A11E20FFF795FC07B000BD000011
:100F500024070020200900209511000875432F4F19
:100F6000532D4949205374617400000004E00022AD
:100F700000F8012B4A1E91B20029F8DC70470000EE
:100F800010B50024FFF7F6F8044613480078F0B9CE
:100F900012480078D8B900F02DF8114800781149AE
:100FA0000978884213D010480D49097850F821007B
:100FB0000E49086008460068806B401C0968886319
:100FC0000B480068401C0A490860FFF7EAF8204611
:100FD000FFF7D4F810BD00002D0000202E000020E7
:100FE000300000202F000020240B002044000020AF
:100FF000140000200649074A1278885C0649095CFB
:10100000034A515C01EBC001044A117070470000B3
:10101000841700083100002032000020300000203A
:101020000246002005E011F8013B02F8013B431C99
:10103000D8B20B78002BF6D1137070470146002010
:1010400002E0491C421CD0B20A78002AF9D170474C
:101050002DE9F84F05460E4617469846DDE90BABDD
:10106000DDF8289000200090FFF784F800903A48BF
:101070000468002C6BD0183454F8040C364908600E
:101080000098FFF77BF844F8186CA57600202076CE
:101090006076E08244F814AC44F80C9C44F8107C70
:1010A00024F808BC24F8068CE077E810207705F0D7
:1010B0000700E076217F01208840A077E17E0120B3
:1010C0008840607700206060A0602061E06020625E
:1010D000A0626062E06220633F2084F83400183C24
:1010E00000214D2001552046FFF712FB2046FFF757
:1010F000BFFBFFF73FF80090184840F8254018481C
:10110000006860610020A0611548006810B11448B3
:1011100000688461124804603434A0781149097869
:1011200008431049087020780F49085C617808432B
:1011300014F834190C4A50540C480078401C0B49E0
:1011400008700098FFF71AF80020BDE8F88F0098A3
:10115000FFF714F84220F8E740000020240B00209D
:10116000480000203100002032000020370000201D
:10117000002400BFFEF7FEFF044605480068401C3F
:10118000034908602046FEF7F9FFFFF772FBF1E71D
:1011900038000020002402E01420FFF79FFC1A48CA
:1011A00000780028F8D0194800686421B0FBF1F0FD
:1011B000164908600846006828B9002014490870DC
:1011C000FF20FFF735FC00BFFEF7D4FF04461148AF
:1011D00000681149086000200E4908602046FEF7AB
:1011E000CDFF0D48006809490968B0FBF1F0C0F176
:1011F000640007490870FFF785FB00F00FF80A202C
:10120000FFF76CFCE0E700002C0000202400002029
:101210002000002038000020280000207CB5002598
:1012200014E069462846FFF76FFB064666B9094891
:1012300050F8254044B1012C06D0D4E9020100EB5E
:10124000810060640198A064681CC5B21F2DE8DDB0
:101250007CBD0000240B002002F0010343B102F02A
:1012600002032BB102E0491E002308C00029FAD175
:101270007047000029B1064A92690243044B9A6103
:1012800004E0034A92698243014B9A61704700006F
:101290000010024010B500F0F5F810BD30B5002187
:1012A0000022002400232D4D6D6805F00C0121B1B2
:1012B000042905D0082923D105E0294D056022E045
:1012C000274D05601FE0254D6D6805F47012234D14
:1012D0006D6805F48034022505EB92421CB9214D5E
:1012E000554305600BE01D4D6D6805F400351DB1DB
:1012F0001C4D5543056002E0194D5543056002E061
:10130000174D056000BF00BF144D6D6805F0F0017A
:101310000909154D6B5C0568DD4045600F4D6D6832
:1013200005F4E061090A104D6B5C4568DD4085609D
:101330000A4D6D6805F46051C90A0B4D6B5C456838
:10134000DD40C560054D6D6805F44041890B074DD2
:101350006B5CC568B5FBF3F5056130BD001002405C
:1013600000127A0000093D0000000020100000205B
:10137000704710B500F002F810BD00000CB5002059
:10138000019000903348006840F480303149086093
:1013900000BF3048006800F4003000900198401C05
:1013A0000190009818B90198B0F5A06FF1D12948C3
:1013B000006800F4003010B10120009001E000202E
:1013C00000900098012843D12348006840F01000A5
:1013D000214908600846006820F0030008600846BC
:1013E000006840F0020008601A48406819494860E7
:1013F0000846406848600846406840F4806048609D
:101400000846406820F47C1048600846406840F474
:10141000E81048600846006840F08070086000BF2F
:101420000C48006800F000700028F9D009484068B6
:1014300020F00300074948600846406840F0020079
:10144000486000BF0348406800F00C000828F9D14C
:101450000CBD0000001002400020024010B5FEF755
:1014600089FE044606480078401C0549087020465D
:10147000FEF784FEFFF7A4FBFFF7DEF810BD0000C7
:101480002D00002010B51348006840F001001149FC
:10149000086008464068104908400E494860084600
:1014A00000680E4908400B4908600846006820F4AF
:1014B000802008600846406820F4FE0048604FF431
:1014C0001F008860FFF755FF4FF000600449086077
:1014D00010BD0000001002400000FFF8FFFFF6FE04
:1014E00008ED00E021B1828942F40052828104E0DB
:1014F00082894DF6FF731A408281704702460020B0
:10150000B1F5007F00D100BF13880B400BB1012063
:1015100000E000207047F0B50346002400260025B7
:10152000002040F66A17B94200D100BF1846C1F347
:10153000421401F01F06012707FA06F5012C01D11C
:101540000C3004E0022C01D1103000E014301AB14C
:1015500007682F43076002E00768AF430760F0BDEC
:101560002DE9F04786B005460E460024A24600BF8E
:10157000A1460027B08900B100BF2F462C8A4CF647
:10158000FF700440F08804432C82AC894EF6F310BF
:101590000440B08831890843718908430443AC8111
:1015A000AC8A4FF6FF400440B0890443AC8201A8E6
:1015B000FFF774FE1F48874202D1DDF810A001E05A
:1015C000DDF80CA0A88900F4004040B10AEBCA0085
:1015D00000EB0A1031684900B0FBF1F807E00AEBB4
:1015E000CA0000EB0A1031688900B0FBF1F86420F2
:1015F000B8FBF0F004012009642101FB1089A889DF
:1016000000F4004040B1322000EBC900B0FBF1F023
:1016100000F00700044308E0322000EB09106421C9
:10162000B0FBF1F000F00F0004432C8106B0BDE8E0
:10163000F087000000380140C1F308028280704743
:1016400000BFFEE700B587B0012144F20400FFF7B8
:1016500011FE4FF40070ADF8180003208DF81A0049
:1016600018208DF81B0006A91D48FEF76AFE4FF4EE
:101670008060ADF8180004208DF81B0006A91848FA
:10168000FEF75FFE25208DF8040003208DF805008D
:101690008DF8060001208DF8070001A8FEF7E8FE8E
:1016A0004FF4E13002900020ADF80C00ADF80E00D0
:1016B000ADF81000ADF814000C20ADF8120002A92E
:1016C0000848FFF74DFF012240F225510548FFF77A
:1016D00022FF01210348FFF705FF07B000BD00000E
:1016E0000008014000380140014A024900F013B8E7
:1016F000391700085400002002E008C8121F08C172
:10170000002AFAD170477047002001E001C1121F82
:10171000002AFBD170472DE9F04116460F460446DA
:10172000002503E03946B047641C6D1C2078002872
:10173000F8D12846BDE8F08170B504460D46E1B207
:101740000548FFF779FF00BF40210348FFF7D6FEA9
:101750000028F9D0204670BD0038014010B5FEF7D2
:10176000E9FDFEF751FF0323044A00210448FEF778
:10177000D1FFFEF7A9FF002010BD00005402002099
:10178000190300080000010002000100030001002D
:10179000020001000400010002000100030001003A
:1017A0000200010005000100020001000300010029
:1017B000020001000400010002000100030001001A
:1017C0000200010006000100020001000300010008
:1017D00002000100040001000200010003000100FA
:1017E00002000100050001000200010003000100E9
:1017F00002000100040001000200010003000100DA
:1018000002000100070001000200010003000100C6
:1018100002000100040001000200010003000100B9
:1018200002000100050001000200010003000100A8
:101830000200010004000100020001000300010099
:101840000200010006000100020001000300010087
:101850000200010004000100020001000300010079
:101860000200010005000100020001000300010068
:101870000200010004000100020001000300010059
:101880000200010001000000785634120A00100026
:1018900001002000400101001C00140002000500AE
:1018A00010001F00010000000500100000000000F3
:1018B0000000040000000400000004000100040017
:1018C000010001000100800001001600100001006D
:1018D00080000100010020005C00640001001E0186
:1018E0006E0E0000041900080000002058000000DF
:1018F000F81600085C19000858000020381B00008A
:10190000081700080000000001020304010203049C
:101910000607080902040608000000000000000095
:1019200000000000000000000000000000000000B7
:1019300000000000000000000000000000000000A7
:101940000000000000000000000000000000000097
:0C1950000000000000000000000000008B
:0400000508000131BD
:00000001FF
